:100000002A1C0400000000000000000000000000A6
:1000100000000000000000000000000000000000E0
:1000200000000000000000000000000000000000D0
:1000300000000000000000000000000000000000C0
:1000400000000000000000000000000000000000B0
:1000500000000000000000000000000000000000A0
:100060000000000000000000F41B00000000000081
:100070000000000000000000000000000000000080
:100080000000000000000000000000000000000070
:100090000000000000000000000000000000000060
:1000A0000000000000000000000000000000000050
:1000B0000000000000000000000000000000000040
:1000C0000000000000000000000000000000000030
:1000D0000000000000000000000000000000000020
:1000E0000000000000000000000000000000000010
:1000F0000000000000000000000000000000000000
:1001000000000000000000000000000000000000EF
:1001100000000000000000000000000000000000DF
:1001200000000000000000000000000000000000CF
:1001300000000000000000000000000000000000BF
:1001400000000000000000000000000000000000AF
:10015000000000000000000000000000000000009F
:10016000000000000000000000000000000000008F
:10017000000000000000000000000000000000007F
:10018000000000000000000000000000000000006F
:10019000000000000000000000000000000000005F
:1001A000000000000000000000000000000000004F
:1001B000000000000000000000000000000000003F
:1001C000000000000000000000000000000000002F
:1001D000000000000000000000000000000000001F
:1001E000000000000000000000000000000000000F
:1001F00000000000000000000000000000000000FF
:10385400AF832000F0FF200020A0B700000020006C
:1038640034A0B700400020004420B7006A1E0200C4
:1038740000000000741E0200000000008A1F78008F
:103884008B1F7800C822EF0010002000C6A2B700EA
:10389400D422EF0010002000D2A2B700F01F2000B5
:1038A400A8A2B70060042000C04188008220A800BC
:1038B4008600A9008E00A80000102000D8A2B7003E
:1038C400301F2000C4A1B700D421EF0080022000E3
:1038D400CCA1B70020312000C8A1B70020352000BA
:1038E400D6A1B70020352000D8A1B70000F02000F1
:1038F400D4A1B700001C200090407800C0CFB300D2
:1039040080C06000001C200001487800C1E1A800CC
:103914000A5822000B0020004FFF07003800200047
:10392400A7B028000E20ED00FEFF3A001020ED00A5
:10393400FCFF3A0000000000C822A8003800200064
:10394400A7B028000E20ED00FEFF3A001020ED0085
:10395400FCFF3A0000000000C822A9003800200043
:10396400A7B028000E20ED00FEFF3A001020ED0065
:10397400FCFF3A000000000078FF07000000E200AE
:103984001D00320092FF0700C0418800A100200002
:103994000100B8008000EB00A9F407008041880012
:1039A4009141880002002000832C24003FF5070089
:1039B4006041880071418800C842A8003800200096
:1039C400A7B028000E20ED00FEFF3A001020ED0005
:1039D400FCFF3A0000000000C842A90038002000A3
:1039E400A7B028000E20ED00FEFF3A001020ED00E5
:1039F400FCFF3A00000000002C08F8002E08F80034
:103A04003008F8003208F80060E32900801F7800CD
:103A140000802000801F780055FF0700CF00B10010
:103A24000A802000D3FE070068002000676121009F
:103A34000E20ED00FEFF3A001020ED00FCFF3A00DE
:103A4400EA812000CBFE0700BBFF3700CF057800DA
:083A54004F057800FFFF370069
:10365C000800FA00C091210050418800C0A0210050
:10366C00B0418800A0A3210040418800E0A22100C5
:10367C00A04188000C22EF00000028000EA2B70029
:10368C0055FF0700823E200003002000F4FE0700D7
:10369C000002BE0053FF07004100DE006400400042
:1036AC000A01BE000000E900030035000201D00051
:1036BC008381D200FBFF37000207980013079800A4
:1036CC00849FBE000400BE000002EB00EDFE07006C
:1036DC004F02BE0020079800310798000400BE007E
:1036EC000E0190009E0190000002EB0011FF0700FC
:1036FC008001780001027800600047005001D10081
:10370C00C080D300640047003008E1002090E10045
:10371C000400310061804100E0004A000001BE005D
:10372C000200370003017800840178006100510029
:10373C00E0805900A01088000E22A9000DE2A8001C
:10374C000F42A80029FF070028FF07000080FA009D
:04375C000000060063
:0C33E40000E224000100200000000600B0
:0833F00040002000000006006F
:1033F80038002000A7B028000E20ED00FEFF3A009C
:103408001020ED00FCFF3A0000000000000006005C
:10326C000000FA00020AB800500088000200B80002
:10327C0081004200032AB800810042000080FA005D
:04328C000000060038
:103290000000FA00020007009C1904000000000072
:1032A0000800E20002003A001000070000000600DB
:1032B000811F78000200E20002003D006000100063
:1032C000E08018000600E20002003D0060011100ED
:1032D000E0811900050007004F00E00002003B00FC
:1032E00060001000E08018000000060002000700E7
:1032F0000480BE00000006006022B8000602200024
:103300000000D0008180D2000482D2008582D200E9
:103310000000A8000202520083825A0003003B0012
:103320000202420083824A000000A1000603E90075
:10333000F3FF3A00000006000080FA0000000600DB
:103340000000FA0002000700EE190400000000006F
:103350000800E20002003A0010000700000006002A
:10336000839F68000200E20002003D006000100040
:10337000E08018000600E20002003D00600111003C
:10338000E0811900050007004F00E00002003B004B
:1033900060001000E0801800000006006022B80005
:1033A000060220000000D0008180D2000482D200FA
:1033B0008582D2000000A8000202520083825A00D7
:1033C00003003B000202420083824A000000A10089
:1033D0000603E900F3FF3A00000006000080FA004F
:0433E00000000600E3
:103760000000FA0041418000010001000080FA00E1
:04377000000006004F
:103418000000FA0000000000000000001282BF0057
:083428000080FA00000006001C
:103474000000FA000E82BF00610060000080FA00C4
:04348400000006003E
:10345C000000FA000020EF000F02AF000020EC008B
:08346C000080FA0000000600D8
:103430000000FA0000000000000000001C82BF0035
:083440000080FA000000060004
:103448000000FA001882BF00610060000080FA00E6
:04345800000006006A
:103254000000FA000020EF001902AF000020EC008B
:083264000080FA0000000600E2
:1037D4000000FA00B1418000010001000080FA00FD
:0437E40000000600DB
:103774000200FA008A1F78008B1F78008C1F7800E3
:103784004EB99700E00047006A00570080087800AF
:10379400821F780001067800BEBD970002057800FC
:1037A4005DF607004F017800800178008000410039
:1037B4000020EF0080487800030078004F0678006E
:1037C400CF0578004F0578000080FA00000006005D
:10111C002400FA0000002000500F98008B0078008B
:10112C00618045008005780011407800204F9800C0
:10113C000040E2003A083200AE48900050C2B300C2
:10114C00000CE100080032002E489000004D7800A1
:10115C006100450000057800DE0890007A00470029
:10116C0061884000EDFF37000020EF006007980019
:10117C000020EF00700798001F003700FE00900061
:10118C006E0047006888700061804500800578001B
:10119C002E003700FE0090006E0047006188700042
:1011AC00618045008005780028003700FE00900023
:1011BC006E004700628870006180450080057800F1
:1011CC00220037007E019000018020006E00470055
:1011DC000108710061804500800578001B00370014
:1011EC00FE0090006E00470064887000618045002E
:1011FC0080057800150037009B407800D0C2B30002
:10120C00000CE100DDFF32009B40780000C2B3000F
:10121C00000CE100DFFF32009B407800B0C2B3004D
:10122C00000CE100E1FF32009B40780030C2B300BB
:10123C00000CE100E3FF32009B40780000C3B300D8
:10124C00000CE100E6FF320001003700CAFF370056
:10125C006E0047001010A60004003700E2FF2F00BC
:10126C00EE0047006E004700110861006E00470059
:10127C001030A60004003700B2FF2F00EE0047002C
:10128C006E004700110861001B4078000080FB00D5
:10129C008A1F78000045780057FD07004F0578003D
:1012AC000000E200160032000020EF0060079800FA
:1012BC00EE009000A00020000089B9001B407800CF
:1012CC000080FB0000014100010320006C0047007E
:1012DC000108510061804500800578001B407800B2
:1012EC000080FB008A1F78000045780042FD070053
:1012FC004F0578000000E200EDFF3A000D003700CA
:10130C009B407800A0C2B300000CE10009003A0039
:10131C008C0078001C00780000A0ED00000E780016
:10132C00110078001000780060079800618045007B
:10133C00800578009B407800E0C2B300000CE1000F
:10134C0027003A0061804500800578009B407800BA
:10135C00A0C2B300000CE1000A003A008C00780037
:10136C001C00780000A0ED00000E78001100780041
:10137C0010007800400798006180450080057800D7
:10138C00160037000020EF00400798001B40780043
:10139C000080FB008A1F78000045780016FD0700CE
:1013AC004F0578000000E2000C003200CE009000E7
:1013BC00A00020000089B9001B4078000080FB00D1
:1013CC0000014100010320006800470001085100A2
:1013DC006180450080057800ECFF3700060037007F
:1013EC000020EF00400798007E01900001002100D2
:1013FC006E004700010871008B0078006180450089
:10140C008005780011407800204F98009700370035
:10141C005E08900083073700FE0090006E004700C6
:10142C0070887000F4FF37007E01900001402000AE
:10143C006E00470001087100CC003700020220004A
:10144C00EE0047006E004700110871007E0190000D
:10145C00011020006E00470001087100C300370026
:10146C007E019000012020006E00470001087100F1
:10147C00BE00370002042000EE0047006E0047005B
:10148C0011087100B9003700B800370002022000C3
:10149C00EE0047006E0047001108710002082000A2
:1014AC00EE0047006E00470011087100AF003700D6
:1014BC008C0078001C00780000A0ED00000E780075
:1014CC001100780010007800300F98006000E100E7
:1014DC0002003A0000822000300F98000020EF003C
:1014EC00400F9800BE089000780047001080400024
:1014FC001004E000040032004E0890000020EC00C4
:10150C00400F9800F7FF3700680047001000E0001C
:10151C0006003200CE009000780047001008E10071
:10152C00020031004E009000400F9800EE00900039
:10153C00780047001008E100050036006E019000AD
:10154C00F80047006C0047001108510002003700FA
:10155C000020EF00600798006E0047001030A700D5
:10156C000E0037006E019000EE0090006C004700FA
:10157C00618850000400E2000800320000C2B30091
:10158C00004D78006100450000057800DE089000F1
:10159C007A00470061884000F2FF3700CE089000C7
:1015AC004E0890000020ED00400F98000200E20071
:1015BC000B0032003E089000104D78006100450091
:1015CC00000578003E0890000020EC00300F9800D9
:1015DC00DE0890007A00470061884000EFFF37007A
:1015EC006E0047001030A6000E0037006E01900010
:1015FC00EE0090006C004700618850000400E2008F
:10160C000800320000C2B300004D780061004500B4
:10161C0000057800DE0890007A00470061884000E1
:10162C00F2FF3700BDFE37008C0078001C007800FC
:10163C0000A0ED00000E780011007800100078007A
:10164C00204F98006A004700300F980010002000CF
:10165C00400F9800ACFF3700020C2000EE00470052
:10166C006E00470011087100400037002E489000B2
:10167C006004E10066FF3200AE489000C0C6B300C3
:10168C00000CE10064FF3200AE489000C0C4B3000F
:10169C00000CE10060FF3200AE48900060C6B30061
:1016AC00000CE10060FF3200AE48900050C4B30063
:1016BC00000CE10061FF3200AE48900050C6B30050
:1016CC00000CE10061FF3200AE48900070C6B30020
:1016DC00000CE10062FF3200AE489000F0C6B3008F
:1016EC00000CE10063FF3200AE48900040C6B3002E
:1016FC00000CE10064FF3200AE48900090C6B300CD
:10170C00000CE10060FF3200AE48900000C7B3004F
:10171C00000CE1005DFF3200AE48900080C5B300C4
:10172C00000CE10059FF3200AE48900080C7B300B6
:10173C00000CE10059FF3200AE48900030C7B300F6
:10174C00000CE1005AFF3200AE48900030C6B300E6
:10175C00000CE100B4FF3200AE48900050C7B3005B
:10176C00000CE100BCFF3200B6FF3700FE00900019
:10177C000070200000806000960432006E0047006C
:10178C0010C0A6000200370060002000400798003F
:10179C008C0078001C00780064005000000E78006B
:1017AC00110178001200BE00000F9800110F980074
:1017BC008C1F78008A9FBE000420EF000620EF00EB
:1017CC0008FC07000000E0000060EF0001003D0095
:1017DC000060EC004F05BE004F0678000040E200B0
:1017EC000A0032008E0990001E0A900001002000B1
:1017FC0002002800700047000198690002106A007E
:10180C00FE0090006E004700638870000020EF001F
:10181C00200F98008C1F78008A9FBE000E08900045
:10182C009E0890000420EF000620EF00EDFB07005F
:10183C000000E0000060EF00010032000060EC00EE
:10184C004F05BE004F0678000040E2004900320010
:10185C00F401470070004700B000780020017800C8
:10186C00C710DE000001EB00F00F2000808060004C
:10187C00E007200000805000800978001100200053
:10188C007400470010881000AE0890003000200053
:10189C000088B900200F9800A20020001100090058
:1018AC000200D800200F98006000E10003003D000A
:1018BC001100200074004700108810002E089000C2
:1018CC00600010008C1F78008A9FBE0000457800D5
:1018DC00D6FB07000E0990009E09900045FA070000
:1018EC00300F9800410F98000200200003F82300ED
:1018FC003E089000CE089000BAFB07000000E00004
:10190C000060EF0001003D000060EC004F05BE00E0
:10191C004F0678000040E200040032001100200065
:10192C007400470010881000120037008C1F7800DC
:10193C008A9FBE0002002000031224003E08900083
:10194C00CE08900052FD07000000E0000060EF00A0
:10195C00010035000060EC004F05BE004F0678001A
:10196C000040E20003003200110020007400470028
:10197C00108840002E0890006000E10003003C003D
:10198C0010C0B300204F9800020037004E5090005A
:10199C00204F98006E0047001080A7000E00370003
:1019AC006E0047001090A6000A003700C1FF2F0000
:1019BC00740047001008E10005003C00AE089000E0
:1019CC00680047001008E10001003D0001003700ED
:1019DC000100370002023700680047001000E000E9
:1019EC00060032006E0047001090A600030037007E
:1019FC00CE00900068004700618850004E009000B7
:101A0C006800E1000300360080C0B300204F98004E
:101A1C00020037000E489000204F98008C1F780071
:101A2C008A9FBE000E0890009E0890000420EF00D4
:101A3C000620EF006BFB07000000E0000060EF00E9
:101A4C00010032000060EC004F05BE004F0678002C
:101A5C000040E200720032008C1F78008A9FBE00AA
:101A6C004E55900071FB07000001BE000E0890005F
:101A7C009E0890000BFD0700000F9800110F9800B6
:101A8C006A0047001080FB006000100000457800E1
:101A9C0066FB07000001BE000E0890009E08900037
:101AAC0000FD0700000F9800110F9800C2FC070002
:101ABC0061FC0700600F9800710F98000E089000F1
:101ACC009E0890006E099000FE099000B5FC07007E
:101ADC000200200003F02300EDFC07000000E000F2
:101AEC000060EF00010035000060EC004F05BE0007
:101AFC004F0678000040E2000B0032000E09900007
:101B0C009E0990000000200001F023008C1F78003B
:101B1C008A9FBE007DFA07004F05BE004F06780075
:101B2C00000F9800110F98008C1F78008A9FBE0040
:101B3C000E0890009E0890009FFC07004F05BE0009
:101B4C004F0678006A0147001281FB000420EC006C
:101B5C00C211DD0062DC2900030241001401BE0049
:101B6C000200E1000388E1000F0039008C1F7800AF
:101B7C008A9FBE000E0890009E089000D2CC2C00CC
:101B8C00C3DC23009BF907004F05BE004F0678000D
:101B9C00000F9800110F98001100200074004700EE
:101BAC00108840001E0037008C1F78008A9FBE00F2
:101BBC000E0890009E0890007FFC07004F05BE00A9
:101BCC004F0678006A0147001281FB00C211DD004C
:101BDC0062DC2900030241001401BE000200E10096
:101BEC000388E1000E0031008C1F78008A9FBE0034
:101BFC000E0890009E0890000200200003122400A2
:101C0C007CF907004F05BE004F067800000F9800C6
:101C1C00110F98001100200074004700108810006C
:101C2C006E0047001090A600490037006E00470078
:101C3C0010B0A700460037004E0090006A00E1008B
:101C4C0002003400A0002000400798008C1F780090
:101C5C008A9FBE000E0890009E08900056FC07005C
:101C6C004F05BE004F067800300F9800410F9800CA
:101C7C00F600470031007800210070001D00320092
:101C8C008C1F78008A9FBE00A20020000300200059
:101C9C003E089000CE0890000002EB00790507008A
:101CAC004F05BE004F0678006000E1006088E1003F
:101CBC0010003A00CE009000680047006188500088
:101CCC008C1F78008A9FBE00A20020000300200019
:101CDC003E089000CE0890000002EB00950507002E
:101CEC004F05BE004F067800300F9800410F98004A
:101CFC00DFFF37006A0047009080FB006800470058
:101D0C001008E100120034006A0047009080FB00CC
:101D1C0068004700108050008C1F78008A9FBE001E
:101D2C0000457800C1FA07000001BE000E089000C3
:101D3C009E0890005BFC07004F05BE004F06780024
:101D4C00000F9800110F98000E489000204F98003B
:101D5C004E00900065014000EC0047006C0047000D
:101D6C0011081100680047001000E00004003A0060
:101D7C006E00470010B0A7000100370003003700C9
:101D8C00EE0090006C004700618850007E009000CF
:101D9C00630060000000E20003003200EE009000DF
:101DAC006C004700618850006E0047001020A600B0
:101DBC002C0037006E0047001010A60010003700F2
:101DCC006E0047001000A60003003700D0C2B3001D
:101DDC000047980002003700B0C2B30000479800DB
:101DEC000E409000004D7800610045000005780021
:101DFC00DE0890007A004700618840000A00370036
:101E0C006E0047001000A6000700370000C2B300A8
:101E1C00004D78006100450000057800DE08900058
:101E2C007A004700618840006E0090006000E1007D
:101E3C000B00340000C3B300004D78006100450076
:101E4C0000057800DE0890007A00470061884000A9
:101E5C00EE0090006C00470061885000F2FF3700E4
:101E6C002E0037006E0047001030A7000E00370020
:101E7C006E0090006000E1000B00340000C2B30063
:101E8C00004D78006100450000057800DE089000E8
:101E9C007A00470061884000EE0090006C0047001B
:101EAC0061885000F2FF37006E0047001010A6004A
:101EBC00100037006E0047001000A600030037002A
:101ECC00D0C2B3001047980002003700B0C2B30074
:101EDC00104798001E409000004D780061004500AE
:101EEC0000057800DE0890007A0047006188400009
:101EFC000A0037006E0047001000A60007003700EC
:101F0C0000C2B300004D7800610045000005780068
:101F1C00DE0890007A004700618840008C1F780032
:101F2C008A9FBE000E0890009E089000A2FB07003E
:101F3C00300F9800410F98006A0047001080FB009A
:101F4C00C200DD0060DC2900810040001101BE00F0
:101F5C003E089000CE0890000002EB00F50407004C
:101F6C004F05BE004F06780002032000030020003E
:101F7C0002004000004D780061004500000578002B
:101F8C00DE0890007A004700618840006800470036
:101F9C001000E00004003A006E00470010B0A700EB
:101FAC00010037003C003700E0C2B300004D780060
:101FBC006100450000057800DE0890007A004700BB
:101FCC00618840006A0047001081FB00E800470070
:101FDC0068004700110811006A0047001004E00077
:101FEC001F00320011C0B3006A00470010C8100077
:101FFC006A0047001080FB00C200DD0060DC290095
:10200C00810040001101BE008C1F78008A9FBE0029
:10201C003E089000CE0890000002EB00C5040700BB
:10202C00A2002000030020000002EB009504070032
:10203C004F05BE004F06780002032000030020006D
:10204C0000004100004D780061004500000578005B
:10205C00DE0890007A00470061884000DEFF370000
:10206C00680047001000E0000B00320000C3B30012
:10207C00004D78006100450000057800DE089000F6
:10208C007A00470061884000CE009000680047004D
:10209C0061885000F2FF37006E0047001050A60018
:1020AC000800370050C4B300004D780061004500B3
:1020BC0000057800DE0890007A0047006188400037
:1020CC000700370050C6B300004D78006100450092
:1020DC0000057800DE0890007A0047006188400017
:1020EC002E0890006000E1000B003D00AE0890004F
:1020FC007400470060881000D0C2B300004D780017
:10210C006100450000057800DE0890007A00470069
:10211C006188400007003700B0C2B300004D780062
:10212C006100450000057800DE0890007A00470049
:10213C00618840002E089000A200200011000900C8
:10214C000200D800800078000003200000804000CE
:10215C00004D78006100450000057800DE08900015
:10216C007A004700618840002E089000A2002000F1
:10217C00110009000200D80000032000008040007C
:10218C00004D78006100450000057800DE089000E5
:10219C007A004700618840006E0047001030A600AE
:1021AC000E0037006E0090006000E1000B00340060
:1021BC0000C2B300004D78006100450000057800B6
:1021CC00DE0890007A004700618840006E009000A5
:1021DC000020ED0060079800F5FF3A00CFFB3700B8
:1021EC006E0047001090A600670037002E08900084
:1021FC006000E10005003D002E08900061015000D8
:10220C00E800470068004700110811008C1F780097
:10221C008A9FBE000E0890009E089000E6FA070008
:10222C004F05BE004F067800300F9800410F980004
:10223C0010C0B300204F98006A0047001080FB00CC
:10224C006A00E100100032006A0047001080FB00B9
:10225C00C200DD0060DC290081014000B300780081
:10226C0023017800760047003008E1002090E1005F
:10227C00010036000400370011C0B3006A004700AB
:10228C0010C84000ECFF37006A0047001081FB00CB
:10229C00E800470068004700110811008C1F780007
:1022AC008A9FBE003E089000CE08900062FA07009C
:1022BC00600F9800710F98000E0890009E08900017
:1022CC006E099000FE099000B6FA070000179800FE
:1022DC00111798000E4D900054F907000E11900044
:1022EC009E119000C3F707000200200003F02300AA
:1022FC0086F80700B0FA07004F05BE004F067800BD
:10230C00300F9800410F9800680047001000E00063
:10231C001D0032008C1F78008A9FBE00A200200096
:10232C00030020003E089000CE0890000002EB0055
:10233C00D40307004F05BE004F0678006000E10093
:10234C006088E10010003A008C1F78008A9FBE0064
:10235C00A2002000030020003E089000CE08900050
:10236C000002EB00F30307004F05BE004F06780098
:10237C00300F9800410F9800CE0090006800470085
:10238C0061885000E0FF37004E0090006C00E100C7
:10239C000B003C008C1F78008A9FBE000E4D9000F5
:1023AC00C7F907000E0990009E09900057F8070026
:1023BC004F05BE004F067800000F9800110F9800D3
:1023CC008C1F78008A9FBE000E0890009E0890001B
:1023DC000420EF000620EF0002F907000000E000E7
:1023EC000060EF00010032000060EC004F05BE0001
:1023FC004F0678000040E200390032008C1F780054
:10240C008A9FBE000E0890009E0890006AFA070092
:10241C004F05BE004F0678006000E1006088E100C7
:10242C002F003A002E0890006100E1002C003400CF
:10243C008C1F78008A9FBE004E559000FBF8070059
:10244C000001BE000E0890009E08900095FA07004F
:10245C00F205270093082400E2F807000000E000D2
:10246C000060EF0001003D000060EC004F05BE0075
:10247C004F0678000040E20004003200910020007A
:10248C007400470010881000030037008100200002
:10249C0074004700108810008C1F78008A9FBE00C3
:1024AC004E559000E1F807000001BE000E089000A8
:1024BC009E0890007BFA07003FFA07004F05BE000C
:1024CC004F067800300F9800410F98000020EF0065
:1024DC000220EF00000F9800110F98001700370032
:1024EC008C1F78008A9FBE000E0890009E089000FA
:1024FC0031FA0700300F9800410F98003E08900009
:10250C00CE089000CCF90700600F9800710F98006E
:10251C000E0890009E0890006E099000FE09900035
:10252C0020FA07004F05BE004F067800000F9800F8
:10253C00110F98000020EF00200F980010C0B3007E
:10254C00204F98006A0047001080FB006A00E100F1
:10255C00100032006A0047001080FB00C200DD0052
:10256C0060DC290081014000B30078002301780071
:10257C00760047003008E1002090E10001003600B1
:10258C000400370011C0B3006A00470010C84000B7
:10259C00ECFF37006A0047009080FB0068004700A2
:1025AC00908040007400470010814000EC00470010
:1025BC006C004700110811006E00470010B0A70016
:1025CC0004003700680047001000E00001003A00EA
:1025DC0003003700EE0090006C004700618850004B
:1025EC007E009000630060000000E20003003200F7
:1025FC00EE0090006C004700618850006E004700B0
:10260C001020A6002C0037006E0047001010A6000A
:10261C00100037006E0047001000A60003003700C2
:10262C00D0C2B3002047980002003700B0C2B300FC
:10263C00204798002E409000004D78006100450026
:10264C0000057800DE0890007A00470061884000A1
:10265C000A0037006E0047001000A6000700370084
:10266C0000C2B300004D7800610045000005780001
:10267C00DE0890007A004700618840006E009000F0
:10268C006000E1000B00340000C3B300004D780083
:10269C006100450000057800DE0890007A004700D4
:1026AC0061884000EE0090006C004700618850008B
:1026BC00F2FF37002E0037006E0047001030A700E5
:1026CC000E0037006E0090006000E1000B0034003B
:1026DC0000C2B300004D7800610045000005780091
:1026EC00DE0890007A00470061884000EE00900000
:1026FC006C00470061885000F2FF37006E00470005
:10270C001010A600100037006E0047001000A60045
:10271C0003003700D0C2B3003047980002003700E6
:10272C00B0C2B300304798003E409000004D780096
:10273C006100450000057800DE0890007A00470033
:10274C00618840000A0037006E0047001000A600A8
:10275C000700370000C2B300004D7800610045004F
:10276C0000057800DE0890007A0047006188400080
:10277C002E49900011C0B3006A00470010C8100029
:10278C000440E2001C0032006A0047001080FB008D
:10279C00C200DD0060DC2900810040001101BE0098
:1027AC008C1F78008A9FBE003E089000CE089000D7
:1027BC000002EB00DF020700A20020000300200053
:1027CC000002EB00AF0207004F05BE004F06780079
:1027DC00020320000300200000004100004D78009F
:1027EC006100450000057800DE0890007A00470083
:1027FC0061884000DEFF37002E0890006000E10089
:10280C000B00340000C3B300004D7800610045009C
:10281C0000057800DE0890007A00470061884000CF
:10282C00110020007400470010881000F2FF3700E0
:10283C004E0090006800E1000300340080C0B3003B
:10284C00204F9800020037000E489000204F98004F
:10285C006A0047001081FB00E80047006800470051
:10286C00110811006A0047001004E00004003A004F
:10287C006E00470010B0A7000100370007003700BA
:10288C00E0C2B300004D78006100450000057800FF
:10289C00DE0890007A004700618840008C1F7800A9
:1028AC008A9FBE002E4D9000E0F707000E099000A5
:1028BC009E0990004FF60700F00207004F05BE007E
:1028CC004F067800300F9800410F98006A004700BF
:1028DC001004E0001F00320011C0B3006A00470072
:1028EC0010C810006A0047001080FB00C200DD0019
:1028FC0060DC2900810040001101BE008C1F7800B3
:10290C008A9FBE003E089000CE0890000002EB00AB
:10291C0088020700A2002000030020000002EB0048
:10292C00580207004F05BE004F0678000203200036
:10293C000300200000004100004D780061004500BC
:10294C0000057800DE0890007A004700618840009E
:10295C00DEFF3700680047001000E0000B0032007B
:10296C0000C3B300004D78006100450000057800FD
:10297C00DE0890007A00470061884000CE0090008D
:10298C006800470061885000F2FF37006E00470076
:10299C001030A6000E0037006E0090006000E100C1
:1029AC000B00340000C2B300004D780061004500FC
:1029BC0000057800DE0890007A004700618840002E
:1029CC006E0090000020ED0060079800F5FF3A00C3
:1029DC00D2F93700010C20006E0047001080600017
:1029EC006000E10024003A006E0047001040A60091
:1029FC00090037008C0078001C007800640050003F
:102A0C00000E7800110178001200BE00300F980003
:102A1C00410F9800090037008C0078001C007800EA
:102A2C0000A0ED00000E7800110078001000780076
:102A3C00CF80DE00300F9800410F98003E089000C8
:102A4C00CE0890006000E1006088E10009003D00C4
:102A5C00FE0090006E004700638870003E089000F6
:102A6C00CE08900060001000E0801800300F980035
:102A7C00410F9800150037006E0047001040A6006B
:102A8C00090037008C0078001C00780064005000AE
:102A9C00000E7800110178001200BE00300F980073
:102AAC00410F9800090037008C0078001C0078005A
:102ABC0000A0ED00000E78001100780010007800E6
:102ACC008000EB00300F9800410F98004E009000F2
:102ADC006000E10008003A003E089000CE0890002B
:102AEC006000E1006088E10003003A00CE00900035
:102AFC006800470061884000010C20006E00470010
:102B0C0010806000004278004500370010C0B30010
:102B1C00204F98006A0047001080FB006A00E1001B
:102B2C00100032006A0047001080FB00C200DD007C
:102B3C0060DC290081014000B3007800230178009B
:102B4C00760047003008E1002090E10001003600DB
:102B5C0004003700AE4890006A00470061C840008E
:102B6C00ECFF37003900370010C0B300204F98003D
:102B7C006A0047001080FB006800E1001000320082
:102B8C006A0047001080FB00C200DD0060E12900F4
:102B9C0081014000B30078002301780076004700E3
:102BAC003008E1002090E1000100360004003700FD
:102BBC00AE4890006A00470061C84000ECFF370047
:102BCC002200370010C0B300204F98006A00470065
:102BDC001080FB006C00E100100032006A0047001E
:102BEC001080FB00C200DD0060D92900810140008B
:102BFC00B300780023017800760047003008E1002C
:102C0C002090E1000100360004003700AE4890002F
:102C1C006A00470061C84000ECFF37000B0037002A
:102C2C006024E100B9FF320000CCB3000024E100C5
:102C3C00B6FF320000C8B3000024E100CAFF320026
:102C4C0000C4B3000024E100DEFF32006A0047003C
:102C5C009080FB00680047001008E10003003D0075
:102C6C000E489000204F9800080037006A0047007B
:102C7C009080FB00680047001008E100030034005E
:102C8C006A0047001080FB00400798006C0047006A
:102C9C001000E000070032007E009000630060002E
:102CAC000000E20003003200EE0090006C004700D0
:102CBC0061885000EE009000680047001008E100A9
:102CCC00050034006E019000E80047006C004700DE
:102CDC0011085100020037000020EF006007980037
:102CEC00FE009000408C200080806000008420005A
:102CFC000008E10007003A006C0047001000E000FB
:102D0C0003003200EE0090006C0047006188500018
:102D1C000F003700FE009000008C200080806000C7
:102D2C00008820000008E10009003A006E009000C5
:102D3C006200E10004003400EE0090006C004700DB
:102D4C0062885000020037000020EF0060079800F6
:102D5C006E0047001020A600490037006E004700A7
:102D6C001010A600100037006E0047001000A600DF
:102D7C0003003700D0C2B300404798000200370070
:102D8C00B0C2B300404798004E409000004D780010
:102D9C006100450000057800DE0890007A004700CD
:102DAC0061884000270037006E0047001000A60025
:102DBC000800370000C2B300004D780061004500E8
:102DCC0000057800DE0890007A004700618840001A
:102DDC001C003700FE009000008C200080806000FA
:102DEC00008820000008E10016003A0000C3B30080
:102DFC00004D78006100450000057800DE08900069
:102E0C007A004700618840006E0047001050A60011
:102E1C000300370080C5B30050479800020037000C
:102E2C0080C7B300504798005E409000004D78007A
:102E3C006100450000057800DE0890007A0047002C
:102E4C00618840006C0047001000E0000B0032006D
:102E5C0000C3B300004D7800610045000005780008
:102E6C00DE0890007A004700618840006E009000F8
:102E7C000020ED0060079800F5FF3A00580037007D
:102E8C006C0047001000E0000E0032006E0047009E
:102E9C001030A7000B00370000C2B300004D7800C3
:102EAC006100450000057800DE0890007A004700BC
:102EBC00618840006E0090000020ED0060079800D3
:102ECC00F5FF3A006E0047001010A6001000370006
:102EDC006E0047001000A60003003700D0C2B300FC
:102EEC006047980002003700B0C2B30060479800FA
:102EFC006E409000004D78006100450000057800A0
:102F0C00DE0890007A004700618840000A00370014
:102F1C006E0047001000A6000700370000C2B30087
:102F2C00004D78006100450000057800DE08900037
:102F3C007A00470061884000FE009000008C200061
:102F4C0080806000008420000008E10008003A0046
:102F5C0000C3B300004D7800610045000005780007
:102F6C00DE0890007A004700618840001C003700A2
:102F7C00FE009000008C2000808060000088200003
:102F8C000008E10016003A0000C3B300004D7800C1
:102F9C006100450000057800DE0890007A004700CB
:102FAC00618840006E0047001050A60003003700F7
:102FBC0080C5B300704798000200370080C7B3008B
:102FCC00704798007E409000004D780061004500ED
:102FDC0000057800DE0890007A0047006188400008
:102FEC006A0047009080FB00680047001008E10071
:102FFC0008003D0000C3B300004D7800610045009F
:10300C0000057800DE0890007A00470061884000D7
:10301C00F3FF37004E019000CE009000680047008F
:10302C00618850000400E2006B003200010C2000AB
:10303C006E00470010806000006798005200370057
:10304C004E009000C200DD0060DC290081004000D1
:10305C001101BE008C1F78008A9FBE003E089000B4
:10306C00CE0890000002EB00B2000700A200200086
:10307C00030020000002EB00820007004F05BE0099
:10308C004F06780003C3B3006A01470003494000B0
:10309C00490037006E0047001050A600140037009E
:1030AC004E009000C200DD0060E12900810040006C
:1030BC001101BE008C1F78008A9FBE003E08900054
:1030CC00CE0890000002EB009A0007004F05BE00EE
:1030DC004F0678006F016000E081600080E52900F8
:1030EC008200400011407800204F980013003700F8
:1030FC004E009000C200DD0060E12900810040001C
:10310C001101BE008C1F78008A9FBE003E08900003
:10311C00CE0890000002EB00860007004F05BE00B1
:10312C004F0678006F016000E081600070E42900B8
:10313C008200400011407800204F98001E0037009C
:10314C004E009000C200DD0060D9290081004000D3
:10315C001101BE008C1F78008A9FBE003E089000B3
:10316C00CE0890000002EB00720007004F05BE0075
:10317C004F0678006701600001C3B3006A00470086
:10318C00014841000C0037008E609000600CE1009B
:10319C00ABFF320000CCB300000CE100A8FF320002
:1031AC0000C8B300000CE100BAFF320000C4B30049
:1031BC00000CE100E2FF32002E489000004D780038
:1031CC006100450000057800DE0890007A00470099
:1031DC00618840008FFF37006E0047001030A6005A
:1031EC000E0037006E0090006000E1000B00340010
:1031FC0000C2B300004D7800610045000005780066
:10320C00DE0890007A004700618840006E00900054
:10321C000020ED0060079800F5FF3A00BFF737007B
:0C322C005E0890000080FA000000060020
:100804000000FA0090C3B3000054E10005003E006C
:1008140000C3B3000054E1000200390010C0B3006B
:10082400010037000020EF000080FB000080FA0088
:0408340000000600BA
:100838000400FA006054E10052003D000A00FB0089
:10084800E000100001457800E0C6B300000CE100AC
:100858002C0035000A00FB004206200011000900A8
:100868000200D80072004000C200DD0020D6290036
:10087800010140001200BE0000079800110798000F
:100888000A00FB0042062000110009000200D800FF
:1008980001007800A2002000110009000200D80021
:1008A80069004000C200DD0020D629008100400018
:1008B8001101BE000E0090009E0090008A1F780073
:1008C8004DFE07004F0578000007980011079800B3
:1008D8000A00FB00A2002000110009000200D80055
:1008E80001007800C200DD0020D629008100400008
:1008F8001101BE000E0090009E0090003EFE070011
:100908006E0037006A54E100180034000A00FB004A
:10091800A2002000110009000200D8006900400070
:10092800C200DD0020D62900010140001200BE00EF
:1009380000079800110798000A00FB00A200200099
:10094800110009000200D80001007800C200DD0093
:1009580020D62900810040001101BE000E00900041
:100968009E00900024FE0700540037000A00FB0098
:10097800C200DD0020D62900010140001200BE009F
:100988004E003700E0C6B3000054E1002C003500EB
:100998000A00FB0042062000110009000200D800EE
:1009A80072004000C200DD00E0D2290001014000D1
:1009B8001200BE0000079800110798000A00FB000B
:1009C80042062000110009000200D800010078004A
:1009D800A2002000110009000200D80069004000B0
:1009E800C200DD00E0D22900810040001101BE00F4
:1009F8000E0090009E0090008A1F7800FEFD070000
:100A08004F05780000079800110798000A00FB00BE
:100A1800A2002000110009000200D800010078009F
:100A2800C200DD00E0D22900810040001101BE00B3
:100A38000E0090009E009000EFFD07001F00370099
:100A48006A54E100180034000A00FB00A2002000EC
:100A5800110009000200D80069004000C200DD0052
:100A6800E0D22900010140001200BE0000079800F2
:100A7800110798000A00FB00A200200011000900DD
:100A88000200D80001007800C200DD00E0D2290091
:100A9800810040001101BE000E0090009E009000F1
:100AA800D5FD0700050037000A00FB00C200DD0085
:100AB800E0D22900010140001200BE000080FA00C7
:040AC8000000060024
:100200000000FA00020007001602040000000000CF
:10021000889FBE008A9FBE008C1F780030000700B8
:100220003700330003866C006450E1002400320084
:100230006420E100270032006150E100220032001A
:100240006120E100210032008B854200EB07B10004
:100250000134B800003AB8000804420089844A001A
:10026000013AB8000030B8008880400009014A0017
:100270000400330000004000818048000201490072
:100280008B05E900C909DD0083017000010032001F
:1002900013002000C814DE004814DD004709DE000A
:1002A0001200B200C808DE000884700024000700B5
:1002B00001F0A1000CF0A70003E0A800190037002E
:1002C0006120E1001B0032000881BE000280BE00F8
:1002D000F7FF37006150E100FCFF3A0015003700DE
:1002E0000084BE003C0007000083BE000485BE0001
:1002F0000280BE0038000700844F75000000060031
:100300000280BE006450E100050036006420E10078
:10031000020036000968A30001003A000880BE0010
:1003200002C0A8004F0678004F05BE004F04BE0073
:1003300000000600F0FF2F00F1FF2700F9FF370053
:1003400081002000618055000B003D000B00200063
:1003500061FE2F000100E1001D0034008281710068
:10036000610164008904D1000884D3000000E80022
:10037000FAFF3A0071002000610064000300700081
:10038000020060000900320061044400E0844C0077
:100390000988A500050032008B05E8006808E10027
:1003A00002003A008904D1000884D300F20F200033
:1003B0000258E10005003D00C75DDD00F907B2000D
:1003C0008980750008008800000006000BF82700EF
:1003D0001B00880000000500C70ADE00F107B2001C
:1003E000F50FB20008003200E1CF420002003200F7
:1003F00002E0A80024000500810F70000100320017
:100400000408050044000500810F700002003A0056
:10041000140005008502E9000000400081C048008A
:10042000FCFF3B0002E0A800240005000080FA0069
:0404300000000600C2
:100ACC000400FA00E0C6B3000054E1003100390024
:100ADC000A80FB0042062000110009000200D80029
:100AEC0072004000C200DD0020D629000101400048
:100AFC001200BE008A1F78000200200003F02300C1
:100B0C00BCFD07004F0578000007980011079800FE
:100B1C000A80FB0042062000110009000200D800E8
:100B2C0001007800A2002000110009000200D8008A
:100B3C0069004000C200DD0020D629008100400081
:100B4C001101BE000E0090009E0090008A1F7800DC
:100B5C00A8FD07004F0578000007980011079800C2
:100B6C000A80FB00A2002000110009000200D8003E
:100B7C0001007800C200DD0020D629008100400071
:100B8C001101BE000E0090009E00900099FD070020
:100B9C00270037006A54E1001D0036000A80FB0074
:100BAC00A2002000110009000200D80069004000DA
:100BBC00C200DD0020D62900010140001200BE0059
:100BCC008A1F78000200200003F0230089FD070033
:100BDC004F05780000079800110798000A80FB0069
:100BEC00A2002000110009000200D80001007800CA
:100BFC00C200DD0020D62900810040001101BE009A
:100C0C000E0090009E0090007AFD0700080037004F
:100C1C000A80FB00C200DD0020D629000101400043
:100C2C001200BE000200200003F0230071FD07003B
:080C3C000080FA000000060030
:1007F0000000FA00140020000EFF07000080FA003D
:0408000000000600EE
:100434000000FA0002000700880204000000000027
:10044400841F7800140007004F0078001100330067
:10045400F0FF2F00838F6C0006003B00040565004D
:100464000A00A7000800370009F0A60010002000C9
:1004740008003700820F5400838F5C0003003900AA
:100484001000200001003E000000200009F0A70039
:100494000000EA00000006000084BE000600070019
:1004A4000083BE000485BE000280BE000200070077
:1004B400844F750000000600C70ADE00F107B20091
:1004C400F50FB20008003200E1CF42000200320012
:1004D40002E0A80024000500810F70000100320032
:1004E4000408050044000500810F700002003A0072
:1004F400140005008502E9000000400081C04800A6
:10050400FCFF3B0002E0A800240005000080FA0084
:0405140000000600DD
:100E9C000000FA00F4FF2F0063FD07000080FA0049
:040EAC00000006003C
:100EB0000000FA00020007008A0804000000000099
:100EC000889FBE008A9FBE008C1F78003E000700EE
:100ED0004500330003866C006450E1002E003200B0
:100EE0006420E100330032006150E1002F00320045
:100EF0006120E1003100320085855500EB07B0002C
:100F00000900200008042000050037000804440000
:100F100089844C000A0031000603430087834B009C
:100F20000001530081815B00F8FF33000283BE00A3
:100F30001000A8000804440089844C00F6FF390022
:100F4000C639DD0083017300010032001300200068
:100F50008904D1000884D3000998A3000500320059
:100F60000800A7000600A8008904D1000884D30067
:100F70008B05E8008904D1000884D3000001EB0050
:100F80000281D2002800070001F0A1000CF0A700A8
:100F900003E0A8001D0037006420E1001F003200BC
:100FA0000881BE000280BE00F7FF37006120E1002B
:100FB0001A0032006000B800F3FF37000000200084
:100FC00001F82700F0FF37000084BE003C00070056
:100FD0000083BE000485BE000280BE00380007000A
:100FE000844F7500000006000280BE006450E100DE
:100FF000050036006420E100020036000968A30005
:1010000001003A000880BE0002C0A8004F06780028
:101010004F05BE004F04BE0000000600F0FF2F0089
:10102000F1FF2700F9FF37008100200061805500A3
:101030000B003D000B00200061FE2F000100E100CD
:101040001D00340082817100610164008904D100B7
:101050000884D3000000E800FAFF3A007100200085
:1010600061006400030070000200600009003200AB
:1010700061044400E0844C000988A50005003200AA
:101080008B05E8006808E10002003A008904D100FD
:101090000884D300F20F20000258E10005003D0053
:1010A000C75DDD00F907B20089807500080088007F
:1010B000000006000BF827001B0088000000050058
:1010C000C70ADE00F107B200F50FB20008003200D7
:1010D000E1CF42000200320002E0A8002400050037
:1010E000810F700001003200040805004400050073
:1010F000810F700002003A00140005008502E9002B
:101100000000400081C04800FCFF3B0002E0A80056
:0C111000240005000080FA00000006002A
:100DC4000000FA00020007004A07040000000000C7
:100DD4000081BE00190007000470A70003F0A10001
:100DE40003F8A30013003A006509B10010003200B3
:100DF400090035006928E1000200350001002800DF
:100E04000000050000004000818048008502E900E0
:100E1400FCFF3A0000000600F88F42000500350090
:100E24008100D1000080D3008502E800FCFF3A0075
:100E3400000006008000EB0000000500C70ADE0089
:100E4400F107B200F50FB20008003200E1CF420012
:100E54000200320002E0A80024000500810F7000A7
:100E6400010032000408050044000500810F7000F1
:100E740002003A00140005008502E9000000400069
:100E840081C04800FCFF3B0002E0A80024000500EC
:080E94000080FA0000000600D6
:100C44000000FA0002000700D406040000000000BF
:100C54000400E20006003A000005EB000200E20096
:100C64000F003E000000E200270032000C003700B5
:100C7400A10088000200E2000400350008003C00E6
:100C84000000E20020003200050037006000100080
:100C9400E080180002003B0001F02C001A0037002D
:100CA4000084BE006011B8006B0920000982CF00E7
:100CB400020039000882CF000441B00069425200AA
:100CC4000E00320008003B00828171006101640063
:100CD4008904D1000884D3008B05E8000442E800AD
:100CE400F9FF3A00050037000804440089844C00E9
:100CF4008B05E9000442E900FBFF3A00030007000A
:100D04000AF0A70003E0A80000000600810020000C
:100D1400618055000B003D000B00200061FE2F0098
:100D24000100E1001D003400828171006101640052
:100D34008904D1000884D3000000E800FAFF3A00D7
:100D44007100200061006400030070000200600074
:100D54000900320061044400E0844C000988A500C5
:100D6400050032008B05E8006808E10002003A0043
:100D74008904D1000884D300F20F20000258E10056
:100D840005003D00C75DDD00F907B20089807500EC
:100D940008008800000006000BF827001B008800EC
:0C0DA400000005000080FA0000000600BE
:100DB0000000FA0007E0AA00D7FD07000080FA0053
:040DC0000000060029
:100518000000FA0002000700F403040000000000D5
:10052800889FBE008A9FBE008C1F78005900070074
:10053800600033006450E1004F0032006420E100A5
:100548005200320003826C0007003B000905D0000E
:100558000306D000820F54000C065D00020039002B
:100568000200320039008800C300880085825500E7
:1005780004003D000003FD008103FD008502EA0040
:100588008B854200840F720002003B00600010005F
:10059800E08018006011B8000005EB007A28E1003F
:1005A8000A00390006008800C75DDD00F707B200C1
:1005B800878075002D003700828171002A0088002D
:1005C800610560008180D1000080D3008502E900C8
:1005D800F9FF3B00060440008784480002003B0006
:1005E80060041400E0841C000988A300070032009E
:1005F8008A81710082817100610164008904D100DF
:100608000884D3008B05E800170037000978A30099
:1006180013003A001600E200130034008B05E900CD
:100628000804440089844C000A4474000978A30033
:100638000D003A001600E200070034008B05E900BF
:100648000804440089844C0001003A000B00200093
:100658000978A300F7FF32000001EB000200370021
:10066800828171002A008800220007000CF0A70090
:1006780003E0A800180037006420E10002003A00F7
:10068800838F6C00180033000881BE000280BE0012
:10069800110037000084BE003C0007000083BE0044
:1006A8000485BE000280BE0038000700844F750034
:1006B800000006000280BE006450E100050036001C
:1006C8006420E100020036000968A30001003A0036
:1006D8000880BE0002C0A8004F0678004F05BE0083
:1006E8004F04BE0000000600F0FF2F00F1FF2700B6
:1006F800F9FF370081002000618055000B003D00A4
:100708000B00200061FE2F000100E1001D003400F5
:1007180082817100610164008904D1000884D300DA
:100728000000E800FAFF3A00710020006100640050
:1007380003007000020060000900320061044400F8
:10074800E0844C000988A500050032008B05E8000C
:100758006808E10002003A008904D1000884D30047
:10076800F20F20000258E10005003D00C75DDD00E2
:10077800F907B200898075000800880000000600AB
:100788000BF827001B00880000000500C70ADE00E0
:10079800F107B200F50FB20008003200E1CF4200C5
:1007A8000200320002E0A80024000500810F70005A
:1007B800010032000408050044000500810F7000A4
:1007C80002003A00140005008502E900000040001C
:1007D80081C04800FCFF3B0002E0A800240005009F
:0807E8000080FA000000060089
:103488000000FA0002000700B81A0400000000005B
:103498000081BE001F0007000470A70003F0A10010
:1034A8006509B100160032000D0035006828E100FA
:1034B80006003500F0FF2F00F1FF27000600E200AC
:1034C80013003B0001002800000005000000400038
:1034D800818048008502E900FCFF3A0008003700B7
:1034E800F88F420002003C008000EB00000005005D
:1034F8008100D1000080D3008502E800FCFF3A007B
:103508000600E20002003B0060001000E0801800A6
:1035180000000600C70ADE00F107B200F50FB2008E
:1035280008003200E1CF42000200320002E0A800A9
:1035380024000500810F7000010032000408050016
:1035480044000500810F700002003A0014000500D5
:103558008502E9000000400081C04800FCFF3B00F4
:1035680002E0A800240005000080FA000000060020
:103578000000FA000220EF001A4078006004E10021
:103588000A0032008A1F78000085FB0028FF070028
:103598004F05780061C04000804078000080FB0043
:1035A8000000450010407800F4FF37000080FA0062
:0435B8000000060009
:103238000000FA000F02AF0001003700FDFF370061
:0C3248008A1088000080FA0000000600D8
:103CD4000A8020000B0020001C0009000B1D780046
:043CE40000000600D6
:103CE80001802000E0DE290012000900B0187800E9
:083CF800B0587800000006003E
:1037E8003400F8003600F800801F78002000200020
:1037F8000C000900B01F78008A1F78008600A90015
:1038080060418000714180001DFF070000057800BD
:1038180068FF0700C862A800D71420000E20ED003A
:10382800FEFF3A0000000000C862A9004F057800BA
:10383800A00120000C0009004F1078004F0078000C
:0C3848003600F9003400F90000400600D2
:1035BC000400FA0080382100010020000007980068
:1035CC00110798000E0090009E0090000A017800F0
:1035DC008001EB0022FF07000007980011079800FC
:1035EC005209200003002000E00047006000470063
:1035FC0031181100219019006000470000A0EC0068
:10360C00900078000E009000F2FF23008201600011
:10361C00E20020000201E900030035008100D10026
:10362C000080D300FBFF37000000E20004003200F2
:10363C00F93F0900000000000000E900FAFF370024
:10364C0003800900000000000080FA000000060062
:103A5C0000000000803F000000000000204100003A
:103A6C0000000000C8420000000000007A44000082
:103A7C00004000001C46000000500000C34700003E
:103A8C00002400007449000080960000184B0000D0
:103A9C0020BC0000BE4C0000286B00006E4E0000E5
:103AAC00F902000015500000EC780000AD60000039
:083ABC00CAF20000497100008C
:103AC40000000000803F0000CDCC0000CC3D000091
:103AD4000AD70000233C00006F120000833A000064
:103AE40017B70000D1380000ACC50000273700002C
:103AF400BD3700008635000095BF0000D6330000B6
:103B040077CC00002B3200005F7000008930000089
:103B1400FFE60000DB2E000008E500003C1E00006C
:083B240060420000A20D000048
:103B2C000100000000000000080000000000000080
:103B3C004000000000000000000200000000000037
:103B4C0000100000000000000080000000000000D9
:103B5C000000000004000000000000002000000035
:103B6C000000000000010000000000000008000040
:103B7C0000000000004000000000000000000000F9
:103B8C0001000000000000000A000000000000001E
:103B9C006400000000000000E803000000000000CA
:103BAC001027000000000000A086000001000000AB
:103BBC00404200000F0000008096000098000000BA
:103BCC0000E10000F505000000CA00009A3B00006F
:103BDC0000000000000000000000000000000000D9
:103BEC0000000000000000000000000000000000C9
:103BFC0000000000000000000000000000000000B9
:0C3C0C00000000000000000000000000AC
:043C18000A0000009E
:103C1C00286E0000756C00006C290000000000008C
:103C2C000100000000000000100000000000000077
:103C3C000001000000000000001000000000000067
:103C4C000000000001000000000000001000000057
:103C5C000000000000010000000000000010000047
:103C6C00564500004C2D000031250000342E00007C
:103C7C00336600002C250000342E00003366000053
:103C8C0000300000313200003334000035360000C3
:103C9C003738000039610000626300006465000081
:043CAC0066000000AE
:103CB0003031000032330000343500003637000068
:103CC00038390000414200004344000045460000EE
:043CD00000000000F0
:0200000401F009
:1C000000028300003F000000B38700000F3100000F3300000700000003C000009A
:00000001FF
